{
    "_format": "hh-sol-artifact-1",
    "contractName": "CharityApp",
    "sourceName": "contracts/CharityApp.sol",
    "abi": [
        {
            "inputs": [],
            "stateMutability": "nonpayable",
            "type": "constructor"
        },
        {
            "inputs": [
                {
                    "internalType": "address",
                    "name": "account",
                    "type": "address"
                }
            ],
            "name": "balanceOf",
            "outputs": [
                {
                    "internalType": "uint256",
                    "name": "",
                    "type": "uint256"
                }
            ],
            "stateMutability": "view",
            "type": "function"
        },
        {
            "inputs": [],
            "name": "owner",
            "outputs": [
                {
                    "internalType": "address",
                    "name": "",
                    "type": "address"
                }
            ],
            "stateMutability": "view",
            "type": "function"
        },
        {
            "inputs": [
                {
                    "internalType": "address payable",
                    "name": "_to",
                    "type": "address"
                }
            ],
            "name": "transferFunds",
            "outputs": [],
            "stateMutability": "payable",
            "type": "function"
        }
    ],
    "bytecode": "0x608060405234801561001057600080fd5b50336000806101000a81548173ffffffffffffffffffffffffffffffffffffffff021916908373ffffffffffffffffffffffffffffffffffffffff1602179055506103b2806100606000396000f3fe6080604052600436106100345760003560e01c806370a08231146100395780638da5cb5b14610076578063e39ff19f146100a1575b600080fd5b34801561004557600080fd5b50610060600480360381019061005b91906101d0565b6100bd565b60405161006d91906102a6565b60405180910390f35b34801561008257600080fd5b5061008b6100de565b604051610098919061026b565b60405180910390f35b6100bb60048036038101906100b691906101fd565b610102565b005b60008173ffffffffffffffffffffffffffffffffffffffff16319050919050565b60008054906101000a900473ffffffffffffffffffffffffffffffffffffffff1681565b343373ffffffffffffffffffffffffffffffffffffffff1631101561015c576040517f08c379a000000000000000000000000000000000000000000000000000000000815260040161015390610286565b60405180910390fd5b8073ffffffffffffffffffffffffffffffffffffffff166108fc349081150290604051600060405180830381858888f193505050501580156101a2573d6000803e3d6000fd5b5050565b6000813590506101b58161034e565b92915050565b6000813590506101ca81610365565b92915050565b6000602082840312156101e6576101e5610320565b5b60006101f4848285016101a6565b91505092915050565b60006020828403121561021357610212610320565b5b6000610221848285016101bb565b91505092915050565b610233816102d2565b82525050565b6000610246600f836102c1565b915061025182610325565b602082019050919050565b61026581610316565b82525050565b6000602082019050610280600083018461022a565b92915050565b6000602082019050818103600083015261029f81610239565b9050919050565b60006020820190506102bb600083018461025c565b92915050565b600082825260208201905092915050565b60006102dd826102f6565b9050919050565b60006102ef826102f6565b9050919050565b600073ffffffffffffffffffffffffffffffffffffffff82169050919050565b6000819050919050565b600080fd5b7f4e6f7420656e6f75676820455448210000000000000000000000000000000000600082015250565b610357816102d2565b811461036257600080fd5b50565b61036e816102e4565b811461037957600080fd5b5056fea2646970667358221220e27dc4198f67cd05e011450d92d82269ce2635f978c2b022d8c4236390929e3164736f6c63430008070033",
    "linkReferences": {},
    "deployedLinkReferences": {}
}